:020000020000FC
:200000000000000000000000000000000000000000000000000000000000000000000000E0
:20002000000000000000E0011C0258029402D0020C0348038403C003FC0338047404B004F4
:20004000EC0428056405A005DC05180640028802D00218036003A803F00338048004C80430
:2000600010055805A005E80530067806C006080750078002D00220037003C0031004600477
:20008000B00400055005A005F00540069006E00630078007D0072008A45C0100B85C010023
:2000A000C45C0100D05C01008C5D0100AC5D0100B45D0100BC5D0100C45D0100CC5D010086
:2000C000D45D0100DC5D0100E45D0100EC5D0100F45D0100CC5D0100D45D0100DC5D010040
:2000E000E45D0100EC5D0100F45D0100FC5D0100045E01000C5E0100145E01001C5E01000C
:20010000245E01002C5E0100345E01003C5E0100445E01004C5E0100545E01005C5E0100E7
:20012000B45E0100BC5E0100C45E0100CC5E0100D45E0100DC5E0100E45E0100EC5E010047
:20014000346001003C60010044600100506001005C600100DC600100E860010088620100E9
:2001600090620100F8630100006401002466010034660100E4660100F4660100AC670100EB
:20018000BC6701002468010038680100D8680100E8680100E8690100F4690100E869010079
:2001A000BC6A0100786B01009C6B0100357E798DC2D661672A495A0914848F48495A09140E
:2001C000848F48BDB3BDD06830362926260C0A05060427270D0B05060427270D0B05060475
:2001E0002626260C050437B04C6CE84074E8481C780CC0B08460A0A0240020A080441444D9
:200200004020C038230004708E38015606E8DC0A9C00EBB8539E14B6FA7600080000002369
:20022000390000000000000002030001000200064A0B05FB0F0B530000000000003BB615AF
:20024000B9C368C30A7B315555E455315D98FCFFA0FEA85C1B991B1B1B5B3C1C00011E259F
:200260001E01CA1BD7D706D700898C17858F0B6E700009000000113D00000000000000006F
:2002800002000000000005320A029F05044200000000000040696679BBD05D6327384903B1
:2002A0000F818C453849030F818C45BD00BDE26F30412926260C0A05060427270D0B0506B1
:2002C0000427270D0B050604262A260A06044210D84C2C0034700800900C800880D0C02475
:2002E0000CA004203444004418D4C043000000000A0000250D7E12482A0E868CBB1C1B1A19
:20030000C67D000000580223440000000000000000600E041A0E03C5180304070700310019
:200320000000000000461C07150F900F4C9298FCFFA0FEA85C26FFFFE8FFAA171B011B0D6E
:20034000E55B47000100000300000B8C17858F0B6E70A38585E3851B9C0000001A02114826
:200360000000000000000000320A029F0504420C0202270201100000000000000608041DDC
:200380001D8060FF1EA0A9FF3034397F61BDE5FF62262AFF6344ACFF671B31FF6EC040C0FA
:2003A00072C040C01B70801C37FF1FC0FF20C0FF21E3FF22E3FF2305FF24131F25131F26F0
:2003C000101F27101F2873FF295E7F2A373F2F143C31907F32DEC034100C3A00FF3E003FC3
:2003E0003F100C4500FF49003F4A100C4B00FF4C00FF4D00FF4E00FF4F00FF5000FF510054
:20040000FF5200FF5300FF54003F55100C5600FF5700FF5800FF5900FF5A00FF5B00FF5CCD
:2004200000FF5D00FF5E00FF5F003F6400FF6500FF6600FF6800FF6900FF6A803F6B00FFD8
:200440006C007F6F00FF70007F7300FF74807F7640C07700FF7800FF7A40C081000F820080
:200460000F9000809E000F9F000FB5000FCB000FFF01FF1F00FF2000FF2101FF2200FF23C3
:2004800000FF2490FF2531FF2600FF2700FF2801FF2900FF2A00FF2B000F2F00FF3000FFFA
:2004A0003101FF3200FF3300FF3490FF3531FF3600FF3700FF3801FF3900FF3A00FF3B0031
:2004C0000F3F00FF4000FF4101FF4200FF4300FF4490FF4531FF4600FF4700FF4801FF4968
:2004E00000FF4A00FF4B000F4F00FF5000FF5100FF5200FF5300FF5490FF5531FF5600FF0D
:200500005700FF5801FF5900FF5A00FF5B000FFF00FF000000000000000000000000000014
:200520000000000000000000000000000000000000000000000000000000000000000000BB
:2005400000000000000000000000000000000000000000000000000000000000000000009B
:2005600000000000000000000000000000000000000000000000000000000000000000007B
:2005800000000000000000000000000000000000000000000000000000000000000000005B
:00000001FF
