:020000020000FC
:20000000A800200000000000000008000000000000000000080000008DC02000000001009A
:2000200000000DC000000100000000000D0001008800194D1EB3080004C9096401D300000F
:200040001D4D1AB30800080087001A231EB3080004180809018F01001DA31B5D07000800B7
:20006000880018BC1F45080003670B71012800001E2B19D508000800870019A41F5C08009B
:2000800002E909CA00FD01001E651A9B0700080087011A740200C233C4864C1DB80BD08486
:2000A000803E133D4240E8033200E80390010000E0011C0258029402D0020C034803840375
:2000C000C003FC0338047404B004EC0428056405A005DC05180654069006CC0608074407B0
:2000E000800740028802D00218036003A803F00338048004C80410055805A005E8053006F9
:200100007806C006080750079807E00728087008B80800098002D00220037003C00310047D
:200120006004B00400055005A005F00540069006E00630078007D00720087008C0081009DB
:200140006009B009000A00000080020F0080021E00C0032D0000053C00A085430040064B18
:200160000080075A0080075A008002120000032400C0032D00E0843A00A085430060864CDA
:200180000080075A0080075ABC640100146501002C65010034650100386501004C65010086
:2001A00060650100746501007C650100886501009465010098650100AC650100C06501009F
:2001C000D0650100E4650100F4650100FC650100046601000C660100146601001C66010007
:2001E000246601002C660100346601003C660100446601004C660100546601005C660100C7
:200200001C660100246601002C660100346601003C660100446601004C66010054660100E6
:200220005C660100646601006C660100746601007C660100846601008C66010094660100C6
:200240009C660100A4660100AC660100B4660100BC660100C4660100CC660100D4660100A6
:20026000DC660100E4660100EC660100F8660100046701000C670100146701001C6701005E
:20028000246701003467010044670100546701005C67010014670100646701000467010056
:2002A0006C670100746701008C67010098670100A0670100AC670100B4670100C06701003A
:2002C000C8670100D4670100E0670100EC670100F4670100FC67010004680100146801006C
:2002E000206801002C6801003C68010048680100546801005C68010064680100746801005E
:200300007C680100886801009468010098680100A0680100A8680100B4680100A8680100C1
:20032000B4680100C0680100C8680100A0680100D0680100D8680100E0680100EC68010025
:20034000FC680100046901000C6901001469010054680100186901001C6901002069010087
:2003600028690100306901003C69010048690100E8690100F4690100EC6B0100F46B010091
:200380005C6D0100646D01007C6F01008C6F01008C700100987001003C710100487101006B
:2003A000E8710100F871010080720100947201003C7301004C7301003474010048740100A9
:2003C00068750100707501008476010090760100A4760100D0760100E8760100F47601002B
:2003E000007701000C77010018770100357EF38DC2D661671211925A0914848F2F3D925A47
:200400000914848F2F3D7BB3BDD0681736294E260C0A0506040750270D0B050604075027EB
:200420000D0B050604074F26260C050437B0446CE84074E8A84438780CC0B084146CA0A067
:20044000240020A078101C14444020EC38230004708E38010D7C0CE8DC0A9C009773B853C6
:200460009E14B6FAF88F00080000006B39000000000000000000060001000200080C4A0B75
:2004800005FB0F0B33970000000000003BB615B9C368C30A337F315555E45531B5094CFCC4
:2004A000FFA0FEA83E6C1B991B1B1B433C1C00011E251E0118281BD7D706D7003FD34617F5
:2004C000858F0B6E7EE40009000000233D0000000000000000000200000000000B12190A82
:2004E000029F050443E10000000000004069CC79BBD05D630F0D7049030F818C2C397049E3
:20050000030F818C2C397B00BDE26F1A41294E260C0A0506040750270D0B0506040750278E
:200520000D0B050604074F2A260A06074210B04C2C0034702C5800900C80088060D0C0247D
:200540000CA00420B0F41C004418D48843000100000A000000100D7E12482A0EAFD18CBB11
:200560001C1B1AC68EFD0000005802C744000000000000000000600E041A0E03B25D1803AD
:20058000040707005957000000000000450000000000000000000000000000000001000053
:2005A000000000000001000000000000461C07150F900F4C3B924CFCFFA0FEA83E6C93FF2C
:2005C000FFE8FFAA1F1B1B011B0DE50B4700010000030000000B4617858F0B6E7EE45185A5
:2005E00085E3851BBF790000001A022748000000000000000000190A029F050443E1060237
:200600000227020121380000000000010608041D1D8060FF1EA0A9FF3034397F61BDE5FFA5
:2006200062262AFF6344ACFF671B31FF6EC040C072C040C01B70801C37FF1FC0FF20C0FF8B
:2006400021E3FF22E3FF2305FF24131F25131F26101F27101F2873FF295E7F2A373F2F1491
:200660003C31907F32DEC034100C3A00FF3E003F3F100C49003F4A100C4B00FF4C00FF4DFD
:2006800000FF4E00FF4F00FF5000FF5100FF5200FF5300FF54003F55100C5600FF5700FFCF
:2006A0005800FF5900FF5A00FF5B00FF5C00FF5D00FF5E00FF5F003F6400FF6500FF6600F9
:2006C000FF6800FF6900FF6A803F6B00FF6C007F6F00FF70007F7300FF74807F7640C0779F
:2006E00000FF7800FF7A40C081000F82000F9000809E000F9F000FB5000FCB000FFF01FFE1
:200700001F00FF2000FF2101FF2200FF2300FF2490FF2531FF2600FF2700FF2801FF290094
:20072000FF2A00FF2B000F2F00FF3000FF3101FF3200FF3300FF3490FF3531FF3600FF37D2
:2007400000FF3801FF3900FF3A00FF3B000F3F00FF4000FF4101FF4200FF4300FF4490FF93
:200760004531FF4600FF4700FF4801FF4900FF4A00FF4B000F4F00FF5000FF5100FF520007
:20078000FF5300FF5490FF5531FF5600FF5700FF5801FF5900FF5A00FF5B000FFF00FF0084
:2007A000000000000000000000000000000000000000000000000000000000000000000039
:2007C000000000000000000000000000000000000000000000000000000000000000000019
:2007E0000000000000000000000000000000000000000000000000000000000000000000F9
:200800000000000000000000000000000000000000000000000000000000000000000000D8
:00000001FF
